:03000E00010D03DE
:10159D00C3E50C9428E50B9400400AE5499428E531
:0915AD004894005002D322C3222D
:0616660012156902164B8B
:03163400E4FFFED2
:091637008E0B8F0C8E488F4922A6
:0914E300EB25E0240EF808E6FFF9
:1014EC00EF7002FF22BF01037F0122BF02037F01C5
:0A14FC0022BF03037F02227F0022BB
:100D2A00E4F554F555F556F557F558F559FBFA0B10
:100D3A001214E3EF2559F559E43558F5580BBB0061
:100D4A00010AEB640A4A70E8E52345226008E523B4
:100D5A00640245227011AE58AF597C007D02120C14
:100D6A00F4ED4C70288021E523640145226008E5F2
:100D7A0023640345227016AE58AF597C007D0212D7
:100D8A000CF4ED64014C7005F554755501E4F55801
:100D9A00F559FA7B0B1214E3EF2559F559E4355846
:100DAA00F5580BBB00010AEB64134A70E8E53545B8
:100DBA00346008E535640245347011AE58AF597C89
:100DCA00007D02120CF4ED4C70288021E535640197
:100DDA0045346008E535640345347016AE58AF599A
:100DEA007C007D02120CF4ED64014C7005F5567519
:100DFA005701E55564014554700CE55764014556A1
:090E0A007004FE7F0122E4FEFFEA
:010E130022BC
:0300030002091FD0
:10091F00C0E0C0F0C083C082C0D075D000C000C09E
:10092F0001C002C003C004C005C006C0077F017E1E
:10093F00001215FDD2CD20B203020AA9E50D600306
:10094F00020AA9C2CDE547700BFFFE1216370F1230
:10095F00166C8037E5476401703712159D50057589
:10096F004701800685484A85494B121634D3E54B1B
:10097F00940EE54A94064013E54B949EE54A94077E
:10098F005009750A01754702020AA9754701020A43
:10099F00A9E54764026003020AA912159D5040C3DE
:1009AF00E5499428E54894005015E549250CF50CC8
:1009BF00E548350BF50B754800754900020AA9C3C8
:1009CF00E50C9428E50B94005015E50C2549F549E5
:1009DF00E50B3548F548750B00750C00020AA98523
:1009EF000B4A850C4B121634D3E54B9432E54A94DF
:1009FF0000401AE54B9496E54A94005010E50A25FD
:100A0F00E0240EF87600087600050A8075D3E54BD2
:100A1F009496E54A9400401AE54B94FAE54A9400FF
:100A2F005010E50A25E0240EF87600087601050A35
:100A3F008050D3E54B94FAE54A9400401AE54B9465
:100A4F005EE54A94015010E50A25E0240EF8760081
:100A5F00087602050A802BD3E54B945EE54A940194
:100A6F00401AE54B94C2E54A94015010E50A25E07F
:100A7F00240EF87600087603050A8006750A0075BD
:100A8F004701E50AC394144011750D01E4FFFE12EE
:100A9F001637F50A12166C754700D007D006D00529
:100AAF00D004D003D002D001D000D0D0D082D083D8
:050ABF00D0F0D0E03290
:03000B00021529B2
:10152900C0E0758A18758CFC30B20A050CE50C70A0
:101539000C050B80080549E54970020548D0E032E1
:100E1400E50D64016003020EBF120D2AEF64014E5A
:100E24006003020EB9E523640245226008E52364E9
:100E3400034522700EE51525E025E02517240CF561
:100E440043800AE51525E025E02517F543E51B2534
:100E5400E025E0FFE519C454F02F251DF544E51005
:100E64007019E51114600C14600E2402700D7545A0
:100E74000180087545158003754529E53125E02570
:100E8400E0FFE52FC454F02F2533F540E52B25E092
:100E940025E0252DF541E52725E025E0FFE525C4DE
:100EA40054F02F2529F542E51F25E025E02521F5FD
:0C0EB40046750D0222754701E4F50D2281
:06130B00E50D64027048CC
:10131100F554F555D2CCF554F555AF5574402FF829
:10132100E6FE745C2FF8A6060555E55570020554D6
:101331006407455470E474142561F561D3648094A5
:10134100AD400F7561010560E560B43C05E4F560F1
:08135100055F120AC4750D03CB
:011359002271
:1015CF00C3E56064809480400ED3E5606480948AA4
:0815DF005005E4F50DC2CC2219
:1015FD00EF1FAC0670011E4C600A7D0C7CA9DCFE51
:04160D00DDFC80EC94
:0116110022B6
:09001100075C130B100C3B3706D1
:05000600C2B5C2B622E4
:0512AF002DFDEE3CFCEA
:0612B4008C568D57AB07BC
:1012BA00D2B5E4FD74017E00A805088005C333CECB
:1012CA0033CED8F9FFEBF582EF558224FF92B4D2E0
:1012DA00B6C2B60DBD08DDE4FD74017E00A805089E
:1012EA008005C333CE33CED8F9FFE5565EFEE55707
:1012FA005F4E24FF92B4D2B6C2B60DBD08DBC2B5AA
:01130A0022C0
:02135A00AD07DD
:10135C00E4F9430501D2B5FB74017E00A8030880B3
:10136C0005C333CE33CED8F9FFEDF582EF55822489
:10137C00FF92B4C2B6D2B60BBB08DDE4FBD2B6C248
:10138C00B630B40D7401A803088002C333D8FC42F4
:0B139C00010BBB08E8C2B5C2B4AF01F2
:0113A7002223
:100AC400E4FDFC7F8E1212B4E55C75F00A120C3E54
:100AD400FF3395E0FEEFC4F8540FC868FFEEC4542A
:100AE400F048FEE55C75F00A120C3EADF0ED33956E
:100AF400E0FCEF7F8C1212AFE55D75F00A120C3E3C
:100B0400FF3395E0FEEFC4F8540FC868FFEEC454F9
:100B1400F048FEE55D75F00A120C3EADF0ED33953C
:100B2400E0FCEF7F881212AFE55E75F00A120C3E0E
:100B3400FF3395E0FEEFC4F8540FC868FFEEC454C9
:100B4400F048FEE55E75F00A120C3EADF0ED33950B
:100B5400E0FCEF2DFDEE3CFC7F861212B4E55F75E0
:100B6400F00A120C3EFF3395E0FEEFC4F8540FC8B0
:100B740068FFEEC454F048FEE55F75F00A120C3EBF
:100B8400ADF0ED3395E0FCEF2DFDEE3CFC7F8412DF
:100B940012B4E56075F00A120C3EFF3395E0FEEFE7
:100BA400C4F8540FC868FFEEC454F048FEE56075FD
:100BB400F00A120C3EADF0ED3395E0FCEF2DFDEEA6
:100BC4003CFC7F821212B4E56175F00A120C3EFF00
:100BD4003395E0FEEFC4F8540FC868FFEEC454F038
:100BE40048FEE56175F00A120C3EADF0ED3395E078
:100BF400FCEF2DFDEE3CFC7F801212B4E56275F033
:100C04000A120C3EFF3395E0FEEFC4F8540FC86897
:100C1400FFEEC454F048FEE56275F00A120C3EADD6
:100C2400F0ED3395E0FCEF2DFDEE3CFC7F8A1212D3
:0A0C3400B47D807C007F8E0212B4B4
:100F52007F8C12135AEFC4540F75F00AA4FEEF549B
:100F62000F2EF55C7F8812135AEFC4540F75F00AE6
:100F7200A4FEEF540F2EF55D7F8612135AEFC45470
:100F82000F75F00AA4FEEF540F2EF55E7F84121344
:100F92005AEFC4540F75F00AA4FEEF540F2EF55FFA
:100FA2007F8212135AEFC4540F75F00AA4FEEF5455
:100FB2000F2EF5607F8012135AEFC4540F75F00A9A
:100FC200A4FEEF540F2EF5617F8A12135AEFC45418
:0C0FD2000F75F00AA4FEEF540F2EF5621C
:010FDE0022F0
:1015E700E4FDFC7F8E1212B47DA97F901212B47DA8
:0615F700807F8E0212B499
:10116C00E4F55420A3137F14FE1215FD30A3FD7F6C
:10117C00147E001215FD75540120A4147F147E00FA
:10118C001215FD30A4FD7F147E001215FD7554025E
:10119C0020A5147F147E001215FD30A5FD7F147E52
:1011AC00001215FD75540320A6147F147E00121531
:1011BC00FD30A6FD7F147E001215FD75540420A28F
:1011CC00147F147E001215FD30A2FD7F147E0012D8
:0711DC0015FD755405AF5429
:0111E30022E9
:05167200202000200013
:1010F200120F52E55CFB3395E0FA7558027D037FCF
:10110200011213A8E55DFB3395E0FA7558027D06DE
:101112007F011213A8E55EFB3395E0FA7558027D54
:10112200097F011213A8E562FB3395E0FA755801B5
:101132007D0C7F021213A8E55FFB3395E0FA755828
:10114200027D017F021213A8E560FB3395E0FA7578
:1011520058027D047F021213A8E561FB3395E0FA81
:0A1162007558027D077F020213A8F2
:10060E00E568B4020B0565E56575F0078485F06550
:10061E00E568640360030206F4745C2565F806D38E
:10062E00E55C648094E34003E4F55CD3E55D6480AF
:10063E00948C4003755D01E55D64016023E55D64A6
:10064E0003601DE55D64056017E55D64076011E5F7
:10065E005D6408600BE55D640A6005E55DB40C0B36
:10066E00D3E55E6480949F404D8048E55D640460F0
:10067E0011E55D6406600BE55D64096005E55DB43A
:10068E000B0BD3E55E6480949E402B8026E55DB413
:10069E000224E55C75F004120C3EAFF0EF700BD344
:1006AE00E55E6480949D400E8009D3E55E6480947F
:1006BE009C4003755E01D3E55F648094974003E42C
:1006CE00F55FD3E560648094BB4003E4F560D3E549
:1006DE0061648094BB4003E4F561D3E56264809469
:1006EE00874003756201E568640460030207FB74CA
:1006FE005C2565F816C3E55C648094805003755CD8
:10070E0063C3E55D648094815003755D0CE55D64A3
:10071E00016023E55D6403601DE55D64056017E51A
:10072E005D64076011E55D6408600BE55D640A6059
:10073E0005E55DB40C17C3E55E64809481500375C6
:10074E005E1FD3E55E6480949F4072806DE55D64AC
:10075E00046011E55D6406600BE55D64096005E506
:10076E005DB40B17C3E55E648094815003755E1E05
:10077E00D3E55E6480949E4044803FE55D640270E4
:10078E003CE55C75F004120C3EAFF0EF7017C3E55C
:10079E005E648094815003755E1DD3E55E64809423
:1007AE009D401A8015C3E55E648094815003755E8A
:1007BE001CD3E55E6480949C4003755E01C3E55FC7
:1007CE00648094805003755F17C3E56064809480E5
:1007DE00500375603BC3E56164809480500375617E
:1007EE003BC3E562648094815003756207E56570D2
:1007FE0014E567B4010F7BFF7A1679727D037F01D2
:10080E001214908011E55CFB3395E0FA7558027D69
:10081E00037F011213A8E565B40114E567B4010F57
:10082E007BFF7A1679727D067F011214908011E596
:10083E005DFB3395E0FA7558027D067F011213A811
:10084E00E565B40214E567B4010F7BFF7A16797281
:10085E007D097F011214908011E55EFB3395E0FA5D
:10086E007558027D097F011213A8E565B40314E5DE
:10087E0067B4010F7BFF7A1679727D017F02121425
:10088E00908011E55FFB3395E0FA7558027D017F8C
:10089E00021213A8E565B40414E567B4010F7BFFDB
:1008AE007A1679727D047F021214908011E560FB36
:1008BE003395E0FA7558027D047F021213A8E565A0
:1008CE00B40514E567B4010F7BFF7A1679727D07C4
:1008DE007F021214908011E561FB3395E0FA755892
:1008EE00027D077F021213A8E565B40612E567B410
:1008FE00010D7BFF7A1679757D0C7F02021490E54F
:10090E0062FB3395E0FA7558017D0C7F021213A835
:01091E0022B6
:03001B00021427A5
:09142700C0E0C0D075D000C00780
:10143000758B66758DFC0564E56470020563C39465
:10144000F4E56394014012756300756400E567700C
:09145000047F0180027F008F6718
:07145900D007D0D0D0E03233
:10161200323020202D20202D0020203A20203A2078
:021622002000A6
:10150600539603539503E5B254EF4460F5B253B1D5
:101516008F7592E0E4F5917594FFF59353CAEF53F6
:03152600C9EF22E8
:10106B007F647E001215FD121506120EC012166655
:10107B001200061215831215E77BFF7A1679127D83
:10108B00017F011214907BFF7A16791B7D017F0281
:10109B0012149012116C8F68E568600BC2A77F6405
:1010AB007E001215FDD2A7E568B40116E566700740
:1010BB00756601F565800BE566B40106E4F566120D
:1010CB000AC4E5661460080470081210F28003125B
:1010DB00060EE568B40505E4F50DC2CC1215CF126A
:0710EB000E1412130B80AC80
:10001E0000000000000000000000000000000000D2
:10002E00000000F800000000000000333000000067
:10003E0000100C06100C060000000000000000006E
:10004E0040C07840C0784000043F04043F040400E0
:10005E00007088FC08300000001820FF211E0000F0
:10006E00F008F000E018000000211C031E211E0005
:10007E0000F00888700000001E212324192721108B
:10008E0010160E000000000000000000000000002E
:10009E00000000E0180402000000000718204000D5
:1000AE0000020418E00000000040201807000000C5
:1000BE00404080F0804040000202010F0102020029
:1000CE00000000F0000000000101011F010101000D
:1000DE00000000000000000080B070000000000072
:1000EE0000000000000000000001010101010101FB
:1000FE000000000000000000003030000000000092
:10010E000000000080601804006018060100000066
:10011E0000E010080810E000000F102020100F0063
:10012E00001010F8000000000020203F20200000EA
:10013E000070080808887000003028242221300042
:10014E0000300888884830000018202020110E004A
:10015E000000C02010F8000000070424243F2400F3
:10016E0000F80888880808000019212020110E00C8
:10017E0000E0108888180000000F112020110E00DA
:10018E0000380808C83808000000003F00000000D2
:10019E000070880808887000001C222121221C0093
:1001AE0000E010080810E0000000312222110F00BC
:1001BE00000000C0C0000000000000303000000051
:1001CE0000000080000000000000806000000000C1
:1001DE0000008040201008000001020408102000DA
:1001EE004040404040404000040404040404040025
:1001FE0000081020408000000020100804020100BA
:10020E00007048080808F0000000003036010000B9
:10021E00C030C828E810E0000718272423140B006C
:10022E000000C038E0000000203C230202273820E6
:10023E0008F8888888700000203F202020110E00CA
:10024E00C0300808080838000718202020100800C1
:10025E0008F808080810E000203F202020100F00AA
:10026E0008F88888E8081000203F20202320180076
:10027E0008F88888E8081000203F200003000000DE
:10028E00C03008080838000007182020221E02007F
:10029E0008F808000008F808203F210101213F203E
:1002AE00000808F8080800000020203F2020000069
:1002BE0000000808F8080800C08080807F00000059
:1002CE0008F888C028180800203F20012638200092
:1002DE0008F8080000000000203F202020203000F9
:1002EE0008F8F800F8F80800203F003F003F200013
:1002FE0008F830C00008F808203F200007183F001B
:10030E00E01008080810E0000F10202020100F0049
:10031E0008F808080808F000203F2101010100003C
:10032E00E01008080810E0000F18242438504F0081
:10033E0008F8888888887000203F2000030C302041
:10034E0000708808080838000038202121221C007F
:10035E00180808F8080818000000203F20000000C8
:10036E0008F808000008F808001F202020201F00B1
:10037E000878880000C83808000007380E01000011
:10038E00F80800F80008F800033C0700073C0300DB
:10039E00081868808068180820302C03032C302041
:1003AE000838C800C83808000000203F20000000B0
:1003BE0010080808C8380800203826212020180008
:1003CE00000000FE020202000000007F40404000DC
:1003DE00000C30C000000000000000010638C00014
:1003EE0000020202FE000000004040407F000000BC
:1003FE0000000402020204000000000000000000E1
:10040E0000000000000000008080808080808080DE
:10041E0000020204000000000000000000000000C6
:10042E0000008080808000000019242222223F20BC
:10043E0008F8008080000000003F112020110E00FF
:10044E000000008080800000000E1120202011008E
:10045E00000000808088F800000E112020103F2040
:10046E000000808080800000001F222222221300C4
:10047E00008080F0888888180020203F202000000F
:10048E000000808080808000006B949494936000C4
:10049E0008F8008080800000203F210000203F20CF
:1004AE0000809898000000000020203F20200000CF
:1004BE00000000809898000000C08080807F0000BF
:1004CE0008F8000080808000203F24022D3020009C
:1004DE00000808F8000000000020203F2020000047
:1004EE008080808080808000203F20003F20003F61
:1004FE008080008080800000203F210000203F206F
:10050E000000808080800000001F202020201F001F
:10051E00808000808000000080FFA12020110E004E
:10052E000000008080808000000E112020A0FF803F
:10053E00808080008080800020203F2120000100EC
:10054E000000808080808000003324242424190041
:10055E00008080E0808000000000001F202000004E
:10056E008080000000808000001F202020103F208F
:10057E00808080000080808000010E30080601001F
:10058E0080800080008080800F300C030C300F00C4
:10059E0000808000808080000020312E0E312000EF
:1005AE00808080000080808080818E70180601001F
:1005BE0000808080808080000021302C222130003D
:1005CE0000000000807C020200000000003F40405E
:1005DE0000000000FF00000000000000FF0000000F
:1005EE000002027C800000000040403F000000003E
:1005FE0000060101020204040000000000000000D9
:0B164000439403439303D280D2812225
:09165600D280D281C281C280223F
:07165F00C281D280D281227A
:0713E900AC071216567F78D5
:0213F000AD0747
:1013F200E4FB74807E00A803088006CEA2E713CE29
:1014020013D8F8FFEDF582EF558270047F01800258
:101412007F00EF24FFB39281D280C2800BBB08D23F
:04142200D280C28032
:0114260022A3
:101624001213E9E4FF1213F0AF041213F002165F71
:101549003EF583E5822AF582E43583F583E493FF4A
:101559001213E97F401213F0AF041213F002165F61
:0914BE00FFE55B1475F008A4FDC4
:1014C700AA05EF44B0FF121624EA54F0C4540F449F
:0C14D70010FF121624EA540FFF02162426
:1015B600E4F9AF01E4FD1214C7E4FAE4FF12155989
:0815C6000ABA80F709B908EA2E
:0115CE0022FA
:061250008F5A8D5BA9031B
:10125600E55A1425E01214BEE4FAE9FF3395E0FEE0
:10126600EFC4F8540FC868FFEEC454F048FE741E6D
:101276002FF58274FE1215490ABA08DEE55A25E0F2
:10128600141214BEE4FAE9FF3395E0FEEFC4F854F5
:101296000FC868FFEEC454F048FE74262FF582741A
:0812A600FE1215490ABA08DE28
:0112AE00221D
:0A1490008F548D558B568A578958EA
:10149A00E4F559AB56AA57A95885598275830012A3
:1014AA000C60FB600EE5552559FDAF54121250052C
:0314BA005980E076
:0114BD00220C
:10146000FFE49400CF24FFFDEF34FFFC7F0A7E00F1
:081470008E5A8F5BAB05AA0444
:101478007F017E00EB1BAC0270011A4C6009AC5A6C
:07148800AD5B120C8D80ED3D
:01148F00223A
:0813A8008F548D558A568B57B6
:1013B000E4F559E559C39558502EC3E5589559128F
:1013C0001460AC56AD57CFCDCFCECCCE120C9F7C97
:1013D000007D0A120C9FED2430FBE5552559FDAF29
:0813E00054121250055980CB94
:0113E80022E2
:0811E4008F4C8D4D8A4E8B4F9C
:1011EC00C3E54E64809480400D7B2B121250854ECB
:1011FC0052854F5380147B2DAD4DAF4C121250C302
:10120C00E4954FF553E4954EF552E4F551E551C391
:10121C009550502FC3E5509551121460AC52AD53FC
:10122C00CFCDCFCECCCE120C9F7C007D0A120C9F62
:10123C00ED2430FBE54D255104FDAF4C1212500549
:03124C005180CA04
:01124F00227C
:100EC000E4FFFEE4FDFC0DBD00010CBC03F8BDE831
:100ED000F50FBF00010EBE03EABFE8E77FAE1216B2
:100EE000247FD51216247F801216247FA812162480
:100EF0007F3F1216247FD3121624E4FF1216247F9C
:100F0000401216247FA11216247FC81216247FDAFD
:100F10001216247F121216247F811216247FCF12FC
:100F200016247FD91216247FF11216247FDB1216A5
:100F3000247F301216247FA41216247FA6121624B2
:100F40007F8D1216247F141216247FAF12162402EE
:020F500015B6D4
:10156900538E7F5389F0438901758A66758CFCC255
:0A1579008DC28CD2A9D2AFC2B922F4
:10158300538EBF53890F438910758B66758DFCC2CB
:0A1593008FD28ED2ABD2AFC2BB22C2
:0B164B00C289D2A8D2B8C288D2AF2258
:06166C00EF24FF928C2226
:03000000020FDF0D
:0C0FDF00787FE4F6D8FD758168021026CA
:100C3E00C2D530F707B2D563F0FF05F030E70CB23E
:100C4E00D5F4048463F0FF05F080018430D502F4FE
:020C5E0004226E
:100C6000BB010CE58229F582E5833AF583E0225049
:100C700006E92582F8E622BBFE06E92582F8E22293
:0D0C8000E58229F582E5833AF583E49322AD
:100C8D00EF8DF0A4A8F0CF8CF0A428CE8DF0A42E7B
:020C9D00FE2235
:100C9F00BC000BBE0029EF8DF084FFADF022E4CC39
:100CAF00F875F008EF2FFFEE33FEEC33FCEE9DEC02
:100CBF00984005FCEE9DFE0FD5F0E9E4CEFD22ED48
:100CCF00F8F5F0EE8420D21CFEADF075F008EF2F92
:100CDF00FFED33FD4007985006D5F0F222C398FD83
:050CEF000FD5F0EA2220
:100CF400C2D5EC30E709B2D5E4C39DFDE49CFCEE1B
:100D040030E715B2D5E4C39FFFE49EFE120C9FC3E7
:100D1400E49DFDE49CFC8003120C9F30D507C3E4E2
:060D24009FFFE49EFE2289
:100FEB0002106BE493A3F8E493A34003F68001F2A1
:100FFB0008DFF48029E493A3F85407240CC8C33307
:10100B00C4540F4420C8834004F456800146F6DFD5
:10101B00E4800B010204081020408090000EE47E57
:10102B00019360BCA3FF543F30E509541FFEE493CA
:10103B00A360010ECF54C025E060A840B8E493A391
:10104B00FAE493A3F8E493A3C8C582C8CAC583CABC
:10105B00F0A3C8C582C8CAC583CADFE9DEE780BE74
:01001A0000E5
:00000001FF
